{
  "contractName": "CoinFlip",
  "abi": [
    {
      "anonymous": false,
      "inputs": [
        {
          "indexed": false,
          "internalType": "string",
          "name": "description",
          "type": "string"
        }
      ],
      "name": "LogNewProvableQuery",
      "type": "event"
    },
    {
      "anonymous": false,
      "inputs": [],
      "name": "coinFlipComplete",
      "type": "event"
    },
    {
      "constant": true,
      "inputs": [],
      "name": "balance",
      "outputs": [
        {
          "internalType": "uint256",
          "name": "",
          "type": "uint256"
        }
      ],
      "payable": false,
      "stateMutability": "view",
      "type": "function"
    },
    {
      "constant": true,
      "inputs": [],
      "name": "latestNumber",
      "outputs": [
        {
          "internalType": "uint256",
          "name": "",
          "type": "uint256"
        }
      ],
      "payable": false,
      "stateMutability": "view",
      "type": "function"
    },
    {
      "constant": true,
      "inputs": [],
      "name": "owner",
      "outputs": [
        {
          "internalType": "address",
          "name": "",
          "type": "address"
        }
      ],
      "payable": false,
      "stateMutability": "view",
      "type": "function"
    },
    {
      "constant": false,
      "inputs": [
        {
          "internalType": "bytes32",
          "name": "_myid",
          "type": "bytes32"
        },
        {
          "internalType": "string",
          "name": "_result",
          "type": "string"
        }
      ],
      "name": "__callback",
      "outputs": [],
      "payable": false,
      "stateMutability": "nonpayable",
      "type": "function"
    },
    {
      "constant": false,
      "inputs": [
        {
          "internalType": "bytes32",
          "name": "_queryId",
          "type": "bytes32"
        },
        {
          "internalType": "string",
          "name": "_result",
          "type": "string"
        },
        {
          "internalType": "bytes",
          "name": "_proof",
          "type": "bytes"
        }
      ],
      "name": "__callback",
      "outputs": [],
      "payable": false,
      "stateMutability": "nonpayable",
      "type": "function"
    },
    {
      "constant": false,
      "inputs": [],
      "name": "addFunds",
      "outputs": [],
      "payable": true,
      "stateMutability": "payable",
      "type": "function"
    },
    {
      "constant": false,
      "inputs": [
        {
          "internalType": "uint256",
          "name": "selection",
          "type": "uint256"
        }
      ],
      "name": "flipCoin",
      "outputs": [],
      "payable": true,
      "stateMutability": "payable",
      "type": "function"
    },
    {
      "constant": true,
      "inputs": [],
      "name": "getGame",
      "outputs": [
        {
          "internalType": "uint256",
          "name": "betAmount",
          "type": "uint256"
        },
        {
          "internalType": "string",
          "name": "result",
          "type": "string"
        }
      ],
      "payable": false,
      "stateMutability": "view",
      "type": "function"
    },
    {
      "constant": true,
      "inputs": [],
      "name": "getBalance",
      "outputs": [
        {
          "internalType": "uint256",
          "name": "bal",
          "type": "uint256"
        }
      ],
      "payable": false,
      "stateMutability": "view",
      "type": "function"
    },
    {
      "constant": false,
      "inputs": [],
      "name": "withdrawAll",
      "outputs": [
        {
          "internalType": "uint256",
          "name": "",
          "type": "uint256"
        }
      ],
      "payable": false,
      "stateMutability": "nonpayable",
      "type": "function"
    }
  ],
  "bytecode": "0x60806040526000600755336000806101000a81548173ffffffffffffffffffffffffffffffffffffffff021916908373ffffffffffffffffffffffffffffffffffffffff160217905550612d92806100586000396000f3fe6080604052600436106100915760003560e01c8063853828b611610059578063853828b6146103c15780638da5cb5b146103ec578063a26759cb14610443578063b69ef8a81461044d578063dc34b0aa1461047857610091565b806312065fe01461009657806327dc297e146100c157806338bbfa50146101935780634494fd9f146102fc5780635f5be1f414610393575b600080fd5b3480156100a257600080fd5b506100ab6104a3565b6040518082815260200191505060405180910390f35b3480156100cd57600080fd5b50610191600480360360408110156100e457600080fd5b81019080803590602001909291908035906020019064010000000081111561010b57600080fd5b82018360208201111561011d57600080fd5b8035906020019184600183028401116401000000008311171561013f57600080fd5b91908080601f016020809104026020016040519081016040528093929190818152602001838380828437600081840152601f19601f8201169050808301925050505050505091929192905050506104ad565b005b34801561019f57600080fd5b506102fa600480360360608110156101b657600080fd5b8101908080359060200190929190803590602001906401000000008111156101dd57600080fd5b8201836020820111156101ef57600080fd5b8035906020019184600183028401116401000000008311171561021157600080fd5b91908080601f016020809104026020016040519081016040528093929190818152602001838380828437600081840152601f19601f8201169050808301925050505050505091929192908035906020019064010000000081111561027457600080fd5b82018360208201111561028657600080fd5b803590602001918460018302840111640100000000831117156102a857600080fd5b91908080601f016020809104026020016040519081016040528093929190818152602001838380828437600081840152601f19601f8201169050808301925050505050505091929192905050506104f0565b005b34801561030857600080fd5b506103116108e6565b6040518083815260200180602001828103825283818151815260200191508051906020019080838360005b8381101561035757808201518184015260208101905061033c565b50505050905090810190601f1680156103845780820380516001836020036101000a031916815260200191505b50935050505060405180910390f35b6103bf600480360360208110156103a957600080fd5b8101908080359060200190929190505050610a13565b005b3480156103cd57600080fd5b506103d6610ba8565b6040518082815260200191505060405180910390f35b3480156103f857600080fd5b50610401610c60565b604051808273ffffffffffffffffffffffffffffffffffffffff1673ffffffffffffffffffffffffffffffffffffffff16815260200191505060405180910390f35b61044b610c85565b005b34801561045957600080fd5b50610462610cae565b6040518082815260200191505060405180910390f35b34801561048457600080fd5b5061048d610cb4565b6040518082815260200191505060405180910390f35b6000600754905090565b6104ec828260006040519080825280601f01601f1916602001820160405280156104e65781602001600182028038833980820191505090505b506104f0565b5050565b6104f8610cba565b73ffffffffffffffffffffffffffffffffffffffff163373ffffffffffffffffffffffffffffffffffffffff161461052f57600080fd5b60006002836040516020018082805190602001908083835b6020831061056a5780518252602082019150602081019050602083039250610547565b6001836020036101000a0380198251168184511680821785525050505050509050019150506040516020818303038152906040528051906020012060001c816105af57fe5b0690506105ba612b7b565b600960008681526020019081526020016000206040518060800160405290816000820160009054906101000a900473ffffffffffffffffffffffffffffffffffffffff1673ffffffffffffffffffffffffffffffffffffffff1673ffffffffffffffffffffffffffffffffffffffff1681526020016001820154815260200160028201548152602001600382018054600181600116156101000203166002900480601f0160208091040260200160405190810160405280929190818152602001828054600181600116156101000203166002900480156106db5780601f106106b0576101008083540402835291602001916106db565b820191906000526020600020905b8154815290600101906020018083116106be57829003601f168201915b505050505081525050905080602001518214156107a1576040518060400160405280600381526020017f57494e00000000000000000000000000000000000000000000000000000000008152508160600181905250600060028260400151029050816000015173ffffffffffffffffffffffffffffffffffffffff166108fc829081150290604051600060405180830381858888f19350505050158015610786573d6000803e3d6000fd5b508160400151600760008282540392505081905550506107f4565b6040518060400160405280600481526020017f4c4f534500000000000000000000000000000000000000000000000000000000815250816060018190525080604001516007600082825401925050819055505b8060086000836000015173ffffffffffffffffffffffffffffffffffffffff1673ffffffffffffffffffffffffffffffffffffffff16815260200190815260200160002060008201518160000160006101000a81548173ffffffffffffffffffffffffffffffffffffffff021916908373ffffffffffffffffffffffffffffffffffffffff160217905550602082015181600101556040820151816002015560608201518160030190805190602001906108af929190612bb9565b509050507f28f949c236c4c9cb759a38ee6fbc56e82a78f605b3fe9a6bafcc52576f993dd260405160405180910390a15050505050565b60006060600860003373ffffffffffffffffffffffffffffffffffffffff1673ffffffffffffffffffffffffffffffffffffffff16815260200190815260200160002060020154600860003373ffffffffffffffffffffffffffffffffffffffff1673ffffffffffffffffffffffffffffffffffffffff168152602001908152602001600020600301808054600181600116156101000203166002900480601f016020809104026020016040519081016040528092919081815260200182805460018160011615610100020316600290048015610a045780601f106109d957610100808354040283529160200191610a04565b820191906000526020600020905b8154815290600101906020018083116109e757829003601f168201915b50505050509050915091509091565b662386f26fc1000080341015610a2857600080fd5b816000811480610a385750600181145b610a4157600080fd5b346007546002820210610a5357600080fd5b6000809050600062030d4090506000610a6e83600184610fda565b9050610a78612b7b565b33816000019073ffffffffffffffffffffffffffffffffffffffff16908173ffffffffffffffffffffffffffffffffffffffff16815250508781602001818152505034816040018181525050806009600084815260200190815260200160002060008201518160000160006101000a81548173ffffffffffffffffffffffffffffffffffffffff021916908373ffffffffffffffffffffffffffffffffffffffff16021790555060208201518160010155604082015181600201556060820151816003019080519060200190610b4f929190612bb9565b509050507fc4dc360d0a9c0677a3379ae0a3d81e887f761e65fdf3d7e00859d1bcd3c4738960405180806020018281038252603e815260200180612d20603e913960400191505060405180910390a15050505050505050565b60008060009054906101000a900473ffffffffffffffffffffffffffffffffffffffff1673ffffffffffffffffffffffffffffffffffffffff163373ffffffffffffffffffffffffffffffffffffffff1614610c0357600080fd5b6000600754905060006007819055503373ffffffffffffffffffffffffffffffffffffffff166108fc829081150290604051600060405180830381858888f19350505050158015610c58573d6000803e3d6000fd5b508091505090565b6000809054906101000a900473ffffffffffffffffffffffffffffffffffffffff1681565b67016345785d8a000080341015610c9b57600080fd5b3460076000828254019250508190555050565b60075481565b60065481565b60008073ffffffffffffffffffffffffffffffffffffffff16600260009054906101000a900473ffffffffffffffffffffffffffffffffffffffff1673ffffffffffffffffffffffffffffffffffffffff161480610d4257506000610d40600260009054906101000a900473ffffffffffffffffffffffffffffffffffffffff16611575565b145b15610d5357610d516000611580565b505b600260009054906101000a900473ffffffffffffffffffffffffffffffffffffffff1673ffffffffffffffffffffffffffffffffffffffff166338cc48316040518163ffffffff1660e01b8152600401602060405180830381600087803b158015610dbd57600080fd5b505af1158015610dd1573d6000803e3d6000fd5b505050506040513d6020811015610de757600080fd5b810190808051906020019092919050505073ffffffffffffffffffffffffffffffffffffffff16600160009054906101000a900473ffffffffffffffffffffffffffffffffffffffff1673ffffffffffffffffffffffffffffffffffffffff1614610f3257600260009054906101000a900473ffffffffffffffffffffffffffffffffffffffff1673ffffffffffffffffffffffffffffffffffffffff166338cc48316040518163ffffffff1660e01b8152600401602060405180830381600087803b158015610eb657600080fd5b505af1158015610eca573d6000803e3d6000fd5b505050506040513d6020811015610ee057600080fd5b8101908080519060200190929190505050600160006101000a81548173ffffffffffffffffffffffffffffffffffffffff021916908373ffffffffffffffffffffffffffffffffffffffff1602179055505b600160009054906101000a900473ffffffffffffffffffffffffffffffffffffffff1673ffffffffffffffffffffffffffffffffffffffff1663c281d19e6040518163ffffffff1660e01b815260040160206040518083038186803b158015610f9a57600080fd5b505afa158015610fae573d6000803e3d6000fd5b505050506040513d6020811015610fc457600080fd5b8101908080519060200190929190505050905090565b60008083118015610fec575060208311155b610ff557600080fd5b600a84029350606060016040519080825280601f01601f1916602001820160405280156110315781602001600182028038833980820191505090505b5090508360f81b8160008151811061104557fe5b60200101907effffffffffffffffffffffffffffffffffffffffffffffffffffffffffffff1916908160001a905350606060206040519080825280601f01601f1916602001820160405280156110aa5781602001600182028038833980820191505090505b509050606060206040519080825280601f01601f1916602001820160405280156110e35781602001600182028038833980820191505090505b50905060006110f0611591565b905060208352424118600143034018602084015260208252806020830152606060206040519080825280601f01601f1916602001820160405280156111445781602001600182028038833980820191505090505b509050886020820152606060086040519080825280601f01601f1916602001820160405280156111835781602001600182028038833980820191505090505b50905061119682601860088460006118b1565b5061119f612c39565b604051806080016040528087815260200188815260200186815260200184815250905060006112046040518060400160405280600681526020017f72616e646f6d0000000000000000000000000000000000000000000000000000815250838c611910565b9050606060086040519080825280601f01601f19166020018201604052801561123c5781602001600182028038833980820191505090505b50905060208401517f0100000000000000000000000000000000000000000000000000000000000000810460278301537e01000000000000000000000000000000000000000000000000000000000000810460268301537d010000000000000000000000000000000000000000000000000000000000810460258301537c0100000000000000000000000000000000000000000000000000000000810460248301537b01000000000000000000000000000000000000000000000000000000810460238301537a01000000000000000000000000000000000000000000000000000081046022830153790100000000000000000000000000000000000000000000000000810460218301537801000000000000000000000000000000000000000000000000810460208301535061156282828560016004811061137b57fe5b602002015160028760006004811061138f57fe5b60200201516040518082805190602001908083835b602083106113c757805182526020820191506020810190506020830392506113a4565b6001836020036101000a038019825116818451168082178552505050505050905001915050602060405180830381855afa158015611409573d6000803e3d6000fd5b5050506040513d602081101561141e57600080fd5b81019080805190602001909291905050508760026004811061143c57fe5b60200201516040516020018085805190602001908083835b602083106114775780518252602082019150602081019050602083039250611454565b6001836020036101000a03801982511681845116808217855250505050505090500184805190602001908083835b602083106114c857805182526020820191506020810190506020830392506114a5565b6001836020036101000a03801982511681845116808217855250505050505090500183815260200182805190602001908083835b6020831061151f57805182526020820191506020810190506020830392506114fc565b6001836020036101000a03801982511681845116808217855250505050505090500194505050505060405160208183030381529060405280519060200120611c7f565b8199505050505050505050509392505050565b6000813b9050919050565b600061158a611c9b565b9050919050565b60008073ffffffffffffffffffffffffffffffffffffffff16600260009054906101000a900473ffffffffffffffffffffffffffffffffffffffff1673ffffffffffffffffffffffffffffffffffffffff16148061161957506000611617600260009054906101000a900473ffffffffffffffffffffffffffffffffffffffff16611575565b145b1561162a576116286000611580565b505b600260009054906101000a900473ffffffffffffffffffffffffffffffffffffffff1673ffffffffffffffffffffffffffffffffffffffff166338cc48316040518163ffffffff1660e01b8152600401602060405180830381600087803b15801561169457600080fd5b505af11580156116a8573d6000803e3d6000fd5b505050506040513d60208110156116be57600080fd5b810190808051906020019092919050505073ffffffffffffffffffffffffffffffffffffffff16600160009054906101000a900473ffffffffffffffffffffffffffffffffffffffff1673ffffffffffffffffffffffffffffffffffffffff161461180957600260009054906101000a900473ffffffffffffffffffffffffffffffffffffffff1673ffffffffffffffffffffffffffffffffffffffff166338cc48316040518163ffffffff1660e01b8152600401602060405180830381600087803b15801561178d57600080fd5b505af11580156117a1573d6000803e3d6000fd5b505050506040513d60208110156117b757600080fd5b8101908080519060200190929190505050600160006101000a81548173ffffffffffffffffffffffffffffffffffffffff021916908373ffffffffffffffffffffffffffffffffffffffff1602179055505b600160009054906101000a900473ffffffffffffffffffffffffffffffffffffffff1673ffffffffffffffffffffffffffffffffffffffff1663abaa5f3e6040518163ffffffff1660e01b815260040160206040518083038186803b15801561187157600080fd5b505afa158015611885573d6000803e3d6000fd5b505050506040513d602081101561189b57600080fd5b8101908080519060200190929190505050905090565b60606000828501905080845110156118c857600080fd5b600086602001905060008460200190505b86886020010182101561190157818901518082880152506020820191506020810190506118d9565b85935050505095945050505050565b60008073ffffffffffffffffffffffffffffffffffffffff16600260009054906101000a900473ffffffffffffffffffffffffffffffffffffffff1673ffffffffffffffffffffffffffffffffffffffff16148061199857506000611996600260009054906101000a900473ffffffffffffffffffffffffffffffffffffffff16611575565b145b156119a9576119a76000611580565b505b600260009054906101000a900473ffffffffffffffffffffffffffffffffffffffff1673ffffffffffffffffffffffffffffffffffffffff166338cc48316040518163ffffffff1660e01b8152600401602060405180830381600087803b158015611a1357600080fd5b505af1158015611a27573d6000803e3d6000fd5b505050506040513d6020811015611a3d57600080fd5b810190808051906020019092919050505073ffffffffffffffffffffffffffffffffffffffff16600160009054906101000a900473ffffffffffffffffffffffffffffffffffffffff1673ffffffffffffffffffffffffffffffffffffffff1614611b8857600260009054906101000a900473ffffffffffffffffffffffffffffffffffffffff1673ffffffffffffffffffffffffffffffffffffffff166338cc48316040518163ffffffff1660e01b8152600401602060405180830381600087803b158015611b0c57600080fd5b505af1158015611b20573d6000803e3d6000fd5b505050506040513d6020811015611b3657600080fd5b8101908080519060200190929190505050600160006101000a81548173ffffffffffffffffffffffffffffffffffffffff021916908373ffffffffffffffffffffffffffffffffffffffff1602179055505b60606004604051908082528060200260200182016040528015611bbf57816020015b6060815260200190600190039081611baa5790505b50905083600060048110611bcf57fe5b602002015181600081518110611be157fe5b602002602001018190525083600160048110611bf957fe5b602002015181600181518110611c0b57fe5b602002602001018190525083600260048110611c2357fe5b602002015181600281518110611c3557fe5b602002602001018190525083600360048110611c4d57fe5b602002015181600381518110611c5f57fe5b6020026020010181905250611c758582856121f2565b9150509392505050565b8060046000848152602001908152602001600020819055505050565b600080611cbb731d3b2638a7cc9f2cb3d298a3da7a90b67e5506ed611575565b1115611d5d57731d3b2638a7cc9f2cb3d298a3da7a90b67e5506ed600260006101000a81548173ffffffffffffffffffffffffffffffffffffffff021916908373ffffffffffffffffffffffffffffffffffffffff160217905550611d546040518060400160405280600b81526020017f6574685f6d61696e6e6574000000000000000000000000000000000000000000815250612758565b600190506121ef565b6000611d7c73c03a2615d5efaf5f49f60b7bb6583eaec212fdf1611575565b1115611e1e5773c03a2615d5efaf5f49f60b7bb6583eaec212fdf1600260006101000a81548173ffffffffffffffffffffffffffffffffffffffff021916908373ffffffffffffffffffffffffffffffffffffffff160217905550611e156040518060400160405280600c81526020017f6574685f726f707374656e330000000000000000000000000000000000000000815250612758565b600190506121ef565b6000611e3d73b7a07bcf2ba2f2703b24c0691b5278999c59ac7e611575565b1115611edf5773b7a07bcf2ba2f2703b24c0691b5278999c59ac7e600260006101000a81548173ffffffffffffffffffffffffffffffffffffffff021916908373ffffffffffffffffffffffffffffffffffffffff160217905550611ed66040518060400160405280600981526020017f6574685f6b6f76616e0000000000000000000000000000000000000000000000815250612758565b600190506121ef565b6000611efe73146500cfd35b22e4a392fe0adc06de1a1368ed48611575565b1115611fa05773146500cfd35b22e4a392fe0adc06de1a1368ed48600260006101000a81548173ffffffffffffffffffffffffffffffffffffffff021916908373ffffffffffffffffffffffffffffffffffffffff160217905550611f976040518060400160405280600b81526020017f6574685f72696e6b656279000000000000000000000000000000000000000000815250612758565b600190506121ef565b6000611fbf73a2998efd205fb9d4b4963afb70778d6354ad3a41611575565b11156120615773a2998efd205fb9d4b4963afb70778d6354ad3a41600260006101000a81548173ffffffffffffffffffffffffffffffffffffffff021916908373ffffffffffffffffffffffffffffffffffffffff1602179055506120586040518060400160405280600a81526020017f6574685f676f65726c6900000000000000000000000000000000000000000000815250612758565b600190506121ef565b6000612080736f485c8bf6fc43ea212e93bbf8ce046c7f1cb475611575565b11156120e457736f485c8bf6fc43ea212e93bbf8ce046c7f1cb475600260006101000a81548173ffffffffffffffffffffffffffffffffffffffff021916908373ffffffffffffffffffffffffffffffffffffffff160217905550600190506121ef565b60006121037320e12a1f859b3feae5fb2a0a32c18f5a65555bbf611575565b1115612167577320e12a1f859b3feae5fb2a0a32c18f5a65555bbf600260006101000a81548173ffffffffffffffffffffffffffffffffffffffff021916908373ffffffffffffffffffffffffffffffffffffffff160217905550600190506121ef565b60006121867351efaf4c8b3c9afbd5ab9f4bbc82784ab6ef8faa611575565b11156121ea577351efaf4c8b3c9afbd5ab9f4bbc82784ab6ef8faa600260006101000a81548173ffffffffffffffffffffffffffffffffffffffff021916908373ffffffffffffffffffffffffffffffffffffffff160217905550600190506121ef565b600090505b90565b60008073ffffffffffffffffffffffffffffffffffffffff16600260009054906101000a900473ffffffffffffffffffffffffffffffffffffffff1673ffffffffffffffffffffffffffffffffffffffff16148061227a57506000612278600260009054906101000a900473ffffffffffffffffffffffffffffffffffffffff16611575565b145b1561228b576122896000611580565b505b600260009054906101000a900473ffffffffffffffffffffffffffffffffffffffff1673ffffffffffffffffffffffffffffffffffffffff166338cc48316040518163ffffffff1660e01b8152600401602060405180830381600087803b1580156122f557600080fd5b505af1158015612309573d6000803e3d6000fd5b505050506040513d602081101561231f57600080fd5b810190808051906020019092919050505073ffffffffffffffffffffffffffffffffffffffff16600160009054906101000a900473ffffffffffffffffffffffffffffffffffffffff1673ffffffffffffffffffffffffffffffffffffffff161461246a57600260009054906101000a900473ffffffffffffffffffffffffffffffffffffffff1673ffffffffffffffffffffffffffffffffffffffff166338cc48316040518163ffffffff1660e01b8152600401602060405180830381600087803b1580156123ee57600080fd5b505af1158015612402573d6000803e3d6000fd5b505050506040513d602081101561241857600080fd5b8101908080519060200190929190505050600160006101000a81548173ffffffffffffffffffffffffffffffffffffffff021916908373ffffffffffffffffffffffffffffffffffffffff1602179055505b6000600160009054906101000a900473ffffffffffffffffffffffffffffffffffffffff1673ffffffffffffffffffffffffffffffffffffffff16632ef3accc86856040518363ffffffff1660e01b81526004018080602001838152602001828103825284818151815260200191508051906020019080838360005b838110156125015780820151818401526020810190506124e6565b50505050905090810190601f16801561252e5780820380516001836020036101000a031916815260200191505b509350505050602060405180830381600087803b15801561254e57600080fd5b505af1158015612562573d6000803e3d6000fd5b505050506040513d602081101561257857600080fd5b81019080805190602001909291905050509050823a02670de0b6b3a7640000018111156125ab576000801b915050612751565b60606125b685612772565b9050600160009054906101000a900473ffffffffffffffffffffffffffffffffffffffff1673ffffffffffffffffffffffffffffffffffffffff1663c55c1cb68360008985896040518663ffffffff1660e01b8152600401808581526020018060200180602001848152602001838103835286818151815260200191508051906020019080838360005b8381101561265b578082015181840152602081019050612640565b50505050905090810190601f1680156126885780820380516001836020036101000a031916815260200191505b50838103825285818151815260200191508051906020019080838360005b838110156126c15780820151818401526020810190506126a6565b50505050905090810190601f1680156126ee5780820380516001836020036101000a031916815260200191505b5096505050505050506020604051808303818588803b15801561271057600080fd5b505af1158015612724573d6000803e3d6000fd5b50505050506040513d602081101561273b57600080fd5b8101908080519060200190929190505050925050505b9392505050565b806003908051906020019061276e929190612c60565b5050565b606061277c6127f2565b612784612ce0565b612790816104006127fe565b61279981612848565b60008090505b83518110156127db576127ce8482815181106127b757fe5b60200260200101518361285690919063ffffffff16565b808060010191505061279f565b506127e58161287b565b8060000151915050919050565b60405180590338823950565b600081905060006020828161280f57fe5b0614612828576020818161281f57fe5b06602003810190505b808360200181815250506040518084526000815281810160405250505050565b612853816004612889565b50565b61286382600283516128aa565b61287681836129ea90919063ffffffff16565b505050565b612886816007612889565b50565b6128a6601f60058360ff16901b1783612a9590919063ffffffff16565b5050565b601781116128d6576128d18160058460ff16901b60ff161784612a9590919063ffffffff16565b6129e5565b60ff8111612917576128fb601860058460ff16901b1784612a9590919063ffffffff16565b61291181600185612ad59092919063ffffffff16565b506129e4565b61ffff81116129595761293d601960058460ff16901b1784612a9590919063ffffffff16565b61295381600285612ad59092919063ffffffff16565b506129e3565b63ffffffff811161299d57612981601a60058460ff16901b1784612a9590919063ffffffff16565b61299781600485612ad59092919063ffffffff16565b506129e2565b67ffffffffffffffff81116129e1576129c9601b60058460ff16901b1784612a9590919063ffffffff16565b6129df81600885612ad59092919063ffffffff16565b505b5b5b5b5b505050565b6129f2612ce0565b82602001518360000151518351011115612a2257612a21836002612a1b86602001518651612b3c565b02612b58565b5b60008060008451905085518051602081830101945086518101825260208701935050505b60208110612a695781518352602083019250602082019150602081039050612a46565b60006001826020036101000a039050801983511681855116818117865250508694505050505092915050565b81602001516001836000015151011115612abb57612aba826002846020015102612b58565b5b815180516020818301018381536001820183525050505050565b612add612ce0565b836020015184600001515183011115612b0b57612b0a846002612b04876020015186612b3c565b02612b58565b5b60006001836101000a0390508451805184818301018684198251161781528582018352505050849150509392505050565b600081831115612b4e57829050612b52565b8190505b92915050565b606082600001519050612b6b83836127fe565b612b7583826129ea565b50505050565b6040518060800160405280600073ffffffffffffffffffffffffffffffffffffffff1681526020016000815260200160008152602001606081525090565b828054600181600116156101000203166002900490600052602060002090601f016020900481019282601f10612bfa57805160ff1916838001178555612c28565b82800160010185558215612c28579182015b82811115612c27578251825591602001919060010190612c0c565b5b509050612c359190612cfa565b5090565b60405180608001604052806004905b6060815260200190600190039081612c485790505090565b828054600181600116156101000203166002900490600052602060002090601f016020900481019282601f10612ca157805160ff1916838001178555612ccf565b82800160010185558215612ccf579182015b82811115612cce578251825591602001919060010190612cb3565b5b509050612cdc9190612cfa565b5090565b604051806040016040528060608152602001600081525090565b612d1c91905b80821115612d18576000816000905550600101612d00565b5090565b9056fe50726f7661626c652072616e646f6d206e756d6265722071756572792073656e742c2077616974696e6720666f722074686520726573706f6e73652e2e2ea265627a7a723158207f52c7e52e72d37457ce7609c4b6998e02e7faad0f128cf5cd63bd234447846b64736f6c634300050c0032",
  "source": "pragma solidity 0.5.12;\n\nimport \"./Ownable.sol\";\nimport \"./provableAPI.sol\";\n\ncontract CoinFlip is Ownable, usingProvable {\n\n    uint256 constant NUM_RANDOM_BYTES_REQUESTED = 1;\n    uint256 public latestNumber;\n\n    event LogNewProvableQuery(string description);\n    event coinFlipComplete();\n\n    uint public balance = 0;\n\n    struct Game {\n      address payable playerAddress;\n      uint playerSelection;\n      uint betAmount;\n      string result;\n    }\n\n    // Used by frontend code to fetch player game using player address\n    mapping (address => Game) private games;\n    // Used by smartcontract to keep track of games in progress waiting to get result from oracle\n    mapping (bytes32 => Game) private gamesInProgress;\n\n    modifier minCost(uint _cost){\n        require(msg.value >= _cost);\n        _;\n    }\n\n    modifier validSelection(uint _selection){\n        require((_selection == 0) || (_selection == 1));\n        _;\n    }\n\n    modifier validBetAmount(uint _betAmount){\n        require(_betAmount * 2 < balance);\n        _;\n    }\n\n    function __callback(bytes32 _queryId, string memory _result, bytes memory _proof) public {\n        require(msg.sender == provable_cbAddress());\n\n        uint256 coinFlipResult = uint256(keccak256(abi.encodePacked(_result))) % 2;\n\n        Game memory playerGame = gamesInProgress[_queryId];\n\n        if (coinFlipResult == playerGame.playerSelection) {\n            playerGame.result = \"WIN\";\n            uint winAmount = playerGame.betAmount * 2;\n            playerGame.playerAddress.transfer(winAmount);\n            balance -= playerGame.betAmount;\n        } else {\n            playerGame.result = \"LOSE\";\n            balance += playerGame.betAmount;\n        }\n\n        games[playerGame.playerAddress] = playerGame;\n\n        // remove game in progress\n        \n        emit coinFlipComplete();\n    }\n\n    // function testGetRandom(address payable playerAddress, uint playerSelection, uint betAmount) public returns (bytes32){\n    //     bytes32 queryId = bytes32(keccak256(abi.encodePacked(msg.sender)));\n\n    //     Game memory newGame;\n    //     newGame.playerAddress = playerAddress;\n    //     newGame.playerSelection = playerSelection;\n    //     newGame.betAmount = betAmount;\n        \n    //     gamesInProgress[queryId] = newGame;\n\n    //     __callback(queryId, \"1\", bytes(\"some proof\"));\n\n    //     return queryId;\n    // }\n\n    function addFunds() public payable minCost(0.1 ether){\n        balance += msg.value;\n    }\n\n    function flipCoin(uint selection) public payable minCost(0.01 ether) validSelection(selection) validBetAmount(msg.value) {\n        // require that no game in progress already\n        \n        uint256 QUERY_EXECUTION_DELAY = 0;\n        uint256 GAS_FOR_CALLBACK = 200000;\n\n        // bytes32 queryId = testGetRandom(msg.sender, selection, msg.value);\n        bytes32 queryId = provable_newRandomDSQuery(QUERY_EXECUTION_DELAY, NUM_RANDOM_BYTES_REQUESTED, GAS_FOR_CALLBACK);\n\n        // UNCOMMENT THIS WHEN USING REAL ORACLE\n        Game memory newGame;\n        newGame.playerAddress = msg.sender;\n        newGame.playerSelection = selection;\n        newGame.betAmount = msg.value;\n        \n        gamesInProgress[queryId] = newGame;\n        \n        emit LogNewProvableQuery(\"Provable random number query sent, waiting for the response...\");\n    }\n\n    function getGame() public view returns(uint betAmount, string memory result){\n        return (games[msg.sender].betAmount, games[msg.sender].result);\n    }\n\n    function getBalance() view public returns(uint bal) {\n        return balance;\n    }\n\n    function withdrawAll() public onlyOwner returns(uint) {\n       uint toTransfer = balance;\n       balance = 0;\n       msg.sender.transfer(toTransfer);\n       return toTransfer;\n   }\n\n}",
  "sourcePath": "/Users/bdoherty/projects/academyivanontech/ethereum-202/coin-flip/coin-flip-backend/contracts/CoinFlip.sol",
  "compiler": {
    "name": "solc",
    "version": "0.5.12+commit.7709ece9.Emscripten.clang"
  },
  "schemaVersion": "3.0.16",
  "updatedAt": "2021-01-11T15:28:31.279Z",
  "devdoc": {
    "methods": {
      "__callback(bytes32,string)": {
        "details": "The following `__callback` functions are just placeholders ideally     meant to be defined in child contract when proofs are used.     The function bodies simply silence compiler warnings."
      }
    }
  },
  "userdoc": {
    "methods": {}
  }
}